:020000040800F2
:10000000C0050020C9000008611D00089D1C0008F3
:1000100000000000000000000000000000000000E0
:10002000000000000000000000000000AB1D000800
:100030000000000000000000A91D0008AD1D000820
:10004000DB00000800000000DB000008DB00000807
:10005000DB000008DB000008DB000008DB00000814
:1000600000000000DB000008DB000008DB000008E7
:10007000DB000008DB000008DB00000800000000D7
:10008000DB000008DB00000800000000DB000008C7
:10009000DB000008DB000008DB000008DB000008D4
:1000A000DB000008DB000008DB0000081522000868
:1000B000DB0000080348854600F03CFC0048004790
:1000C000E52F0008C0050020044880470448004789
:1000D000FEE7FEE7FEE7FEE7FEE7FEE71D1E00087F
:1000E000B500000830B50B4601460020202201244F
:1000F00009E00D46D5409D4205D31D469540491B5C
:100100002546954040191546521E002DF1DC30BDA4
:1001100010B5202A04DB0846203AD040002110BD4B
:100120000B46D340D0402024A21A914008431946E0
:1001300010BDF8B502464A40D40F42004B005208A9
:100140005B089A4202D20246084611464A0023D072
:10015000C30D4A00DDB2120EAD1A202D35DA490268
:100160000126490AF6058A19002C00D052422021A6
:100170004F1B1146B9402A411018C20D9A4221D096
:10018000002C17D0012D08DCDA05801AD20F801957
:10019000D207DBB200F0AFFAF8BDDA05801A01230E
:1001A00040001B06C01880185A428018CA0F10431E
:1001B000490007E04908C2071143DA05801A80198F
:1001C0004008801800F08FFAF8BD61000122511A32
:1001D000001BF7E70122D2075140AAE70122D2070C
:1001E0005040A6E7024670B54A40D30FDB074000F7
:1001F0002DD04A002AD0010E140E00021202091955
:10020000400A520A8418E50104465443000A120ABF
:100210002E045043A4194219200CC543AA18120CED
:100220000125AD03521C521912047F39240400D059
:10023000521C104301D44000491EC2B20C06C00932
:100240002018401C4008802A02D003E0002070BD26
:1002500040084000002900DA0020184370BD00006B
:10026000F0B507460846584087B0C00F04904800D4
:100270000E46590040084908BC1A884105D2384644
:1002800031461E4617460B460246580040081043AA
:100290004CD0300D039040055900400D490D05909C
:1002A000401A0290402872DA18030121000B090558
:1002B0000843019004980092002805D00199524209
:1002C0000020884100920190029840210A1A019969
:1002D000009800F0E5F905460C466B4607CB00F0A8
:1002E000EFF9C0197141039A0E0D0023D71756403C
:1002F0001A467A40164344D0049A002A2DD0029A16
:10030000012A039A15DC1205C01A9141012636050F
:10031000001C7141D20F059ED207009301920296F4
:100320002A46234600F02DFA07B0F0BD3846314684
:10033000FAE71605224A0F46B218C01AB741012142
:100340000905001C4F4100187F41114618187941DA
:10035000E20F10436D19644113E0E2076D08154385
:100360006408C2071443039A01261205C01A91417A
:100370003605001C7141CE07400830434908C018BB
:1003800051412A46234600F0EFF9CDE7FFE70498F4
:1003900001224000C117121A00238B4104983146F4
:1003A000C417381AA141EEE730B40124E4076340D2
:1003B00030BC55E730B40124E407614030BC4FE75E
:1003C0000000E0FFF0B51FB488B00B990998002435
:1003D00048400999C00F490049080991C0070B9985
:1003E0000090490049080B9109990898A6460843CE
:1003F0001CD00B990A98084318D009980124400092
:10040000420D4800410D099824050003000B2043CC
:1004100009900B980003000B20430B9050181C49C7
:100420004018002201901446104605E000200146C5
:100430000DB0F0BD032801DA034600E003239C461B
:10044000C11A0AAE0AE05F0008ADED5B4F00F75B32
:100450007D430027AA187C41491C5B1E6145F2DDE3
:10046000410004AB5A522104120C0A43240C401CD4
:100470000828DFDB019802900099704601910090F6
:10048000059B049A0799069800F07BF9D0E70000D5
:100490000DFCFFFFF0B50C465C4085B0E40FE407AF
:1004A00003944C000026640859009446490802460B
:1004B0000296224321D062460A431ED06200570DA5
:1004C0004A000E032303550D012402462C4924053E
:1004D000781B1B0B360B40182343264361460090C4
:1004E0001C46501AB44103D30098401C009002E00F
:1004F000921800985B41002803DA0020014605B0FD
:10050000F0BD0020012109050746864611E064463A
:100510001D46141BB54106D36546521BB3417446B4
:1005200007430C43A646CD074008490828439218C4
:100530005B4105460D43EAD11046184313D060468F
:10054000194650407140084306D06046101AB34126
:1005500006D20122002306E000220123DB0702E08D
:100560000122D2435310009874460105381C6141A2
:10057000029C039D0019694100F0F6F8BFE70000F6
:10058000FD030000C217C10F504010B54018CA0744
:100590009623002100F0AFF810BD00000EB505490C
:1005A0000291002100910A460B46019100F0E9F802
:1005B00003B000BD33040000C20FD2074000400862
:1005C0000BD0C10D0723DB01C91840020905400A01
:1005D0001143C2084007114370470020014670478D
:1005E00010B5002904DB0124E40740428C41214678
:1005F000002B04DB1C460123DB075242A341994236
:1006000000D1904210BD0000CB0FDB07490010B5B0
:10061000490802460A4307D00A0D07240903E401EA
:10062000090B121B002A01DC002010BDC900440F79
:100630000C43C100E018D205801800F054F810BD3A
:10064000F0B51FB40646002082B005464024019153
:1006500000901BE0019922460F463046FFF758FDF7
:10066000049A059B801A994110D3104619462246D8
:1006700000F016F8361A8F4101972246012000211A
:10068000009F00F00DF838184D4100902046641E80
:100690000028DFDC019B00982946324607B0F0BDF8
:1006A00010B5202A04DB0146203A9140002010BDFD
:1006B000914020239C1A0346E3401943904010BD0B
:1006C00010B5202A06DBCB170846203A1041C11787
:1006D0000B4306E00B461341D0402024A21A914060
:1006E0000843194610BD002904DA401C490001D115
:1006F00040084000704770B40024050C05D1102458
:10070000000402D1002921D01124050E01D10002DC
:100710000834050F01D10001241D850F01D180008F
:10072000A41C002801DB4000641C002908D02025FF
:100730002E1B0D46F540A14000D00121294308435E
:1007400001061B1B000ADB1D02D5002070BC704790
:10075000DB05181880180029F8DA401C4900F5D18B
:1007600070BC40084000704710B5002B08DA002428
:10077000401C614192185B411A4301D1400840007E
:1007800010BDF0B51FB482B005460C0003D008467A
:1007900001F05AFD02E001F057FD203002460090C2
:1007A00021462846FFF77CFF049B059A04460F4626
:1007B00018431143084314D0184610431BD0009827
:1007C00040210A1A18460599FFF7A2FC05460E4675
:1007D000009A05990498FFF763FF084305D00120AC
:1007E00004E02046394607B0F0BD0020C11705439C
:1007F0000E432C43374300990E986305401A790540
:10080000E40A00220C43FD0A0A3002D5002001460A
:10081000E9E70105101969410C9C0D9D001969411A
:10082000FFF7A2FFDFE770B54B005B0803430BD077
:100830004B005C0D002633466542B341D417AD1A18
:10084000A34102DB0020014670BD12053018514162
:1008500070BDFEB500231A461B1A8A4103DB002037
:10086000014603B0F0BD4A000D0301212D0B09051F
:10087000520D0D43D10702D100186D41521E511087
:10088000FF31FF310131002704463E4638460097CC
:1008900001910246012100200905FFF739FCC31927
:1008A0007141F818324684468E464A4161462846D0
:1008B000611A904104D36046241A954176461F463A
:1008C000241900986D41401C00903428E1DDF9198D
:1008D00030467041091BA84103D20022D24313467F
:1008E00001E00022134601980105381C7141FFF711
:1008F0003BFFB6E74A0009030123090B1B05194317
:100900000A4B10B5520D9A4202DA0020014610BD82
:10091000064B34339A4203DC9A1AFFF7F9FB10BDF9
:10092000034BD218FFF7BCFE10BD0000FF03000010
:10093000CDFBFFFF064C0125064E05E0E36807CC22
:100940002B430C3C98471034B442F7D3FFF7B6FB67
:100950003031000850310008F0B5A14C8BB0607800
:1009600000287CD00AAA09A908A800F079FAA06892
:100970000090FFF721FE00229A4BFFF71BFD064671
:1009800002910D46E068FFF717FE32462B46FFF74F
:1009900019FD05460F460898FFF7F4FD0099FFF78B
:1009A00021FCFFF709FE2A463B46FFF759FCFFF7FB
:1009B0002BFEE060029D2069FFF7FEFD32462B46CC
:1009C000FFF700FD05460F460998FFF7DBFD00998C
:1009D000FFF708FCFFF7F0FD2A463B46FFF740FC17
:1009E000FFF712FE20610299054637460E46606900
:1009F000FFF7E2FD3A463346FFF7E4FC06460F46B2
:100A00000A98FFF7BFFD0099FFF7ECFBFFF7D4FD55
:100A100032463B46FFF724FCFFF7F6FD6061FFF727
:100A2000CBFD0F46064601212846C9074840FFF77F
:100A3000C3FD3B46324602F015FA00226A4BFFF72F
:100A4000C1FC03229207694BFFF724FDFFF7DCFD91
:100A5000E178674F890078506169084600E0BDE0A1
:100A6000FFF7C0FB216905460846FFF7BBFB294697
:100A7000FFF75FFBFFF7A0FD02F0D8FA05460E4630
:100A8000E068FFF799FD2A46334602F0EBF90022B1
:100A9000554BFFF797FC03229207544BFFF7FAFCE4
:100AA000FFF7B2FDE6783A46B100143250500546E1
:100AB0007858FFF781FDE36AA26AFFF7D1FBE16294
:100AC000A062069007912846FFF776FD636B226BC4
:100AD000FFF7C6FB61630546761C2063F0B20F4644
:100AE000E07005286BD3FFF759FD06460B460091D1
:100AF000324607990698FFF7CDFCE162A0623246C4
:100B000028463946009BFFF7C5FC394F394E6163D3
:100B100000252063A800385840004008FFF74CFD2E
:100B20000B46E16A024649004908A06AFFF73CFC0F
:100B300000223346FFF754FD09D22FA002F07AF8C5
:100B400001202546A07000F007FBA86102E06D1CA3
:100B5000052DDFDB264F00251437A800385840004C
:100B60004008FFF729FD0B46616B02464900490822
:100B7000206BFFF719FC00223346FFF731FD08D246
:100B80001DA002F057F80120A07000F0E5FAA06166
:100B900002E06D1C052DE0DBE36AA26AE363A26359
:100BA000616B206B61642064009001911AA002F0D7
:100BB00041F80020E070A062E0622063606300F012
:100BC000CBFAA169401A1D49884207D9A0780128AB
:100BD00004D11BA002F02EF80020A0700BB0F0BDD5
:100BE000100000200000F03F00806640CA2109404C
:100BF00098010020000004404143434C5F4C4F47A4
:100C0000207C202A2A2A20414354495649545920FD
:100C10002A2A2A200D0A00004143434C5F4C4F47CB
:100C2000207C20726F6C6C3A202566207C207069D5
:100C30007463683A202566200D0A000060EA00000F
:100C40004143434C5F4C4F47207C202A2A2A2049AD
:100C50004E4143544956495459202A2A2A200D0A04
:100C60000000000070B51B4886B0426901214904AC
:100C70000A43426142690A40059242690A4342615D
:100C80004069092608400590202001250024F60629
:100C90000090694601950394304600F0ADF940207C
:100CA0000090019469460294304600F0A5F9802036
:100CB0000090694601950394304600F09DF910209C
:100CC0000090694601950394304600F095F90020A4
:100CD00006B070BD0010024070B508240926054614
:100CE000F606280601D5012200E0002280213046C8
:100CF00000F02BFA00222021304600F026FA00BF37
:100D000000BF022000BF401C3228FBDB0122202153
:100D1000304600F01AFA00BF00BF022000BF401C9E
:100D20003228FBDB6806641E050E2406240ED8D18B
:100D300070BD000010B5FFF795FF00F01BF80649E5
:100D40000748064A06C0084A426006490160084A48
:100D50000649C260816010BD9F27F96C78D56E3F4F
:100D6000800100200E7F8FF27ACD6E3F200FD830A9
:100D70009E9C6C3F10B500212D2000F0DFF8102163
:100D80002D2000F0DBF808212D2000F0D7F810BD51
:100D900038B50025009500F0DFF91B4CE169401AD9
:100DA0007D21C900884227D96A460121002000F030
:100DB00079F868460078E52804D025702078002866
:100DC00003D015E001202070F8E72079401CC0B264
:100DD00020710A280DD90DA001F02CFF00206070B1
:100DE000FFF7A8FFFFF7C6FF2078012805D000E035
:100DF000257100F0B1F9E06138BD0EA001F01AFFD5
:100E000001206070F4E70000100000204143434CD3
:100E10005F4C4F47207C2048617264776172652087
:100E2000496E74657266616365204572726F7221E6
:100E30000D0A00004143434C5F4C4F47207C204843
:100E40006172647761726520496E74657266616370
:100E500065205265636F7665726564210D0A000036
:100E600070B514460D4606460D4A0621322000F0A4
:100E700019F80B4B0120185600215956000208435F
:100E8000306003201856022159560002084328609A
:100E9000052018560421595600020843206070BDF1
:100EA0003000002010B500F001F810BDF7B580212A
:100EB0000843C4B20198012801DD402004430927FA
:100EC000FF0600221021384600F03FF92046FFF7C8
:100ED00003FF002629E008250024002220213846AF
:100EE00000F033F900BF00BF022000BF401C3228D1
:100EF000FBDB01222021384600F027F900BF00BFAC
:100F0000022000BF401C3228FBDB6006040E40219B
:100F1000384600F015F9012800D104436D1E2D0656
:100F20002D0EDAD102988455761C01988642D2DBC8
:100F300001221021384600F008F9FEBD10B500F07E
:100F400001F810BD70B509260C460546F6060022CC
:100F50001021304600F0F9F8E8B2FFF7BDFEE0B22C
:100F6000FFF7BAFE01221021304600F0EEF870BD06
:100F7000004870470800002010B50B49094A0A6074
:100F8000486000208860C86008610C2288614A615E
:100F9000C861084600F07CFD01220449024800F0C7
:100FA000D3FD10BD003801400C01002008000020D6
:100FB00070B50024014620314A78022A03D004216A
:100FC0008163012416E0026813680E25AB431360A9
:100FD000026813685B085B0013600122056C13460E
:100FE000AB40C56B6B604A7000220A70416B0029F0
:100FF00000D08847204670BDF8B500238DE001245D
:101000009C40A44622407DD04C68022C01D0122C7A
:101010000CD1DC08A40027183C6A5D07ED0E0F26F2
:10102000AE40B4430E69AE4026433E6205685E00A2
:101030000324B4400F79A543BF07BF0FB7402F4328
:1010400007604D68012D05D0022D03D0112D01D070
:10105000122D0ED18568CF68A543B7402F43876016
:1010600047686546AF430D79ED06ED0F9D403D4362
:101070004560C568A5438C68B4402C43C4604C6887
:10108000E40049D5284CA56901263543A561A4692A
:101090009D0834400094254CAD002F19BC689D0775
:1010A0002E0F0F25B540AC430925ED06A84201D10E
:1010B00000250FE01E4DA84201D101250AE01D4D7B
:1010C000A84201D1022505E01B4DA84201D103250C
:1010D00000E00525B5402543BD60184C25684E68E5
:1010E0009543F60300D51543256065684E68954322
:1010F000B60300D515436560A5684E689543F602B2
:1011000002D500E008E01543A560E5684E68954308
:10111000B60200D51543E5605B1C0A681446DC4046
:1011200000D06CE7F8BD0000001002400000014054
:101130000004004800080048000C0048000401407A
:101140000069084000D001207047002A01D0816169
:1011500070478162704700000148006870470000D6
:101160000400002070B5040006D02546403568789C
:101170000026002802D005E0012070BD2E70204618
:1011800000F04AF824206870206801684908490086
:1011900001600F21606809068843216808612168A1
:1011A0008A680120C00382438A60E1680129A1683E
:1011B00008D021229202114322689160E16802293D
:1011C00002D005E00143F7E701212268C90251601E
:1011D00021684A680F4B1A434A602168CA688243F3
:1011E000CA60616920690843A1690902084321684E
:1011F000C860216AE06908432168086020680168C6
:101200000122114301606664202068702663AE707D
:10121000002070BD0080000200B500680C4987B056
:10122000884212D1C0200090122001900320039028
:1012300069460848FFF7E0FE0748C26901214905F1
:101240000A43C261C0690840059007B000BD0000B4
:1012500000540040000400480010024002480168A9
:10126000491C0160704700000400002010B50648CA
:101270000168102211430160002000F007F800F01F
:1012800017F8002010BD00000020024010B50446F1
:1012900000F0CEF87D21C900FEF724FF00F050FBDE
:1012A00000222146501E00F029F8002010BD000049
:1012B00008B50C48816901221143816180691040A1
:1012C000002200901146501F00F018F8002211462D
:1012D000901E00F013F800221146501E00F00EF888
:1012E00008BD000000100240C106C90E0120884060
:1012F000014908607047000000E100E010B500F00F
:1013000031FD10BDF8B5054644480E460068C007DB
:10131000C00FB0420AD24148016849084900314330
:1013200001600068C007C00FB0425CD128783C4C17
:10133000800705D56068F0218843A968084360608C
:101340002878C0073FD06868012813D02168022898
:1013500013D08907002946DA6168890889000143AA
:101360006160FFF7F9FE6968074601290DD002297F
:1013700017D024E021688903ECE78901EAE7FFF749
:10138000EBFEC11B2748814217D860680007800F19
:101390000128F4D117E0FFF7DFFEC11B214881428D
:1013A0000BD860680007800F0228F4D10BE0FFF72C
:1013B000D3FEC11B1B48814201D90320F8BD6068E0
:1013C0000007800FF3D115480168C907C90FB14262
:1013D0000BD9016849084900314301600068C00722
:1013E000C00FB04201D00120F8BD2878400706D5D3
:1013F0006068072109028843E9680843606000F0DB
:101400002DF86168084A0906090F515CC840074970
:1014100008600020FFF73AFF0020F8BD00200240DE
:101420000010024088130000743000080000002003
:10143000014800687047000000000020044805498A
:1014400000684968044A4905490F515CC840704723
:1014500000000020001002408430000810B512A3E4
:101460000FCB88B06C460FC413A30FCB0FC4164923
:101470004A680C20134603401448042B0FD0082B55
:101480000DD193021B0F6C46E45CC96A04AB0907DB
:10149000090F595CD20304D5FEF724FE604308B05F
:1014A00010BD0B486043FAE702030405060708096C
:1014B0000A0B0C0D0E0F101001020304050607089D
:1014C000090A0B0C0D0E0F100010024000127A00DA
:1014D00000093D00FEB504460078D04DC00747D056
:1014E00068680007800F012807D068680007800F30
:1014F000022809D16868C00306D52868800337D55B
:10150000606800287ED033E0012062680004012A70
:1015100011D08100002A01D0052A10D02A68824308
:101520002A602868884328606068002814D0FFF784
:1015300013FE06460CE0296801432960F4E72A6897
:101540000A432A60F7E7FFF707FE801B64286FD87D
:1015500028688003F7D50BE0FFF7FEFD064604E0A0
:10156000FFF7FAFD801B6428F1D828688003F7D4C0
:1015700020780126800700283BDA68680007800F82
:1015800007D068680007800F022809D16868C00387
:1015900006D42868800715D5E068012832D111E00B
:1015A000E0680028286815D030432860FFF7D4FD94
:1015B000074604E0FFF7D0FDC01B0228C7D8286803
:1015C0008007F7D52868F82188432169C9000843B6
:1015D00028600EE0400840002860FFF7BDFD074688
:1015E00004E0FFF7B9FDC01B0228B0D828688007C7
:1015F000F7D42078000724D5E0690028686A10D065
:10160000304300E008E16862FFF7A6FD074604E00A
:10161000FFF7A2FDC01B022899D8686A8007F7D59A
:101620000FE0400840006862FFF796FD074605E0BE
:101630009DE0FFF791FDC01B022888D8686A8007EB
:10164000F7D4207804274007002860DA00200190B2
:10165000E869C00008D4E969B8060143E961E969AD
:1016600001400120009101906D480168C90511D425
:101670000168821511430160FFF76EFD009005E0DF
:10168000FFF76AFD0099401A642870D86448006822
:10169000C005F5D5A06801280AD0002801D005288A
:1016A00010D0286A400840002862286AB84301E048
:1016B000286A30432862A068002812D0FFF74CFD4A
:1016C00000900AE0286A38432862F1E7FFF744FDFA
:1016D0000099411A5348814249D8286A8007F5D5B4
:1016E0000DE0FFF739FD009006E0FFF735FD0099AA
:1016F000411A4C4881423AD8286A8007F5D40198AB
:10170000002804D0E969012000078143E9612078BD
:10171000C00635D5606901280CD0401D686B23D008
:1017200038436863686B400840006863FFF714FD46
:10173000064622E0686B38436863686B3043686331
:10174000FFF70AFD064604E0FFF706FD801B0228AE
:101750005BD8686B8007F7D5686BF8218843A1696F
:10176000C900084368630BE0B8436863F4E74CE0E2
:10177000FFF7F2FC801B022847D8686B8007F7D47C
:10178000206A002846D069680907890F022943D0DA
:10179000012636060228286805D0B0432860FFF7E6
:1017A000DBFC044633E0B0432860FFF7D5FC074676
:1017B00004E0FFF7D1FCC01B022826D8286880016E
:1017C000F7D4E86AE16A000900010843E862616A47
:1017D000A06A084369683D22120491430843686087
:1017E000286830432860FFF7B7FC044604E0FFF7A1
:1017F000B3FC001B022808D828688001F7D509E04F
:10180000FFF7AAFC001B022801D90320FEBD2868AF
:101810008001F5D40020FEBD0120FEBD0010024075
:101820000070004088130000F8B5040007D00026BF
:1018300025464035A662687F002802D005E00120D9
:10184000F8BD2E77204600F04BF802236B77206816
:1018500001684022914301600721E0680902884243
:1018600001D9002201E0012212030F273F02B842F2
:1018700002D0884200D0A662276B002F05D1884293
:1018800001D9236301E001202063A16860686369D6
:1018900008432169194308430123A1695B021940E8
:1018A0000843E1690843216A0843A16A08432168A3
:1018B0000860616B606AA36908431B0C0427E16838
:1018C0003B40194308432168104348602068C169C0
:1018D0007A029143C1612666012068770020F8BD35
:1018E00000B500680D4987B0884215D10C4882695F
:1018F00081140A438261806908400590E0200090CD
:1019000002200190002103200390029104910920FC
:101910006946C006FFF770FB07B000BD003001400C
:1019200000100240042204490428086902D09043B0
:10193000086170471043FBE700E000E070470000DB
:10194000094910B5401E884201D9012010BD074C3D
:1019500060610321081F00F005FA0020A061072044
:101960002061002010BD0000FFFFFF0000E000E04C
:1019700010B5FFF7E3FF10BD70470000F8B503682E
:101980000446D96918680D072D0F07D18A0605D5B9
:10199000820603D5204600F003FBF8BD9A68002DAF
:1019A00064D0D507ED0FFF26213606402E435DD0CB
:1019B000CE0706D0C60504D501261E62E36E33436A
:1019C000E3668F0702230426002F06DAD70704D028
:1019D00027683B62E76E3743E7664F0706D5D207B5
:1019E00004D022681662E26E1A43E2660A0709D53D
:1019F000202202402A4305D0236808221A62E36E9F
:101A00001343E366E26E002AC7D0890604D5800638
:101A100002D5204600F0C4FAE06E000703D4206827
:101A2000806840061CD5204600F09EFA2068816838
:101A3000490611D58168402291438160606E00287B
:101A40000AD012494163606EFFF7B2FA0028A4D0B1
:101A5000606E416B8847F8BD2046FFF78DFFF8BDEB
:101A60002046FFF789FF0020E066F8BD0A0605D58D
:101A7000020603D5204600F069FBF8BD4906FCD5F7
:101A80004006FAD5204600F07EFAF8BD551F000842
:101A900070B5040005D025466035687A002802D06C
:101AA00006E0012070BD00202872204600F026F8D4
:101AB00024206872206801684908490001602046B6
:101AC00000F0ACFA0128EDD0606A002802D0204670
:101AD00000F0D2F9206841680122D20291434160AE
:101AE0002068816808229143816020680168012292
:101AF00011430160204600F024FA70BD00B5006873
:101B00000F4987B0884218D10E48826901218903A4
:101B10000A438261806908400590032040020090DA
:101B200002200190002002900320039001200490E5
:101B300009206946C006FFF75FFA07B000BD000044
:101B4000003801400010024070B5034660339C7AB3
:101B5000202C39D100290BD0002A09D00125846816
:101B60002D03AC4206D10669002E03D1CE0701D069
:101B7000012070BD1E7A012E26D001261E724165FD
:101B8000014640310A834A83FF22AC4204D10469F2
:101B9000002C07D10D4A05E0002C04D10469002C6B
:101BA00000D07F228A830021C16622229A72197294
:101BB00001688A6832438A6000680168FF22213226
:101BC00011430160002070BD022070BDFF010000C4
:101BD0007047FFB5064604466036707A83B00D46FE
:101BE000202858D1002D0CD00598002809D00120BC
:101BF000A1680003814207D12069002804D1E807C9
:101C000002D0012007B0F0BD307A012843D0012076
:101C100030720020E06621207072FFF79DFA01907B
:101C200027464037059838820598788218E0788AE8
:101C3000401E788206980090002280212046019B59
:101C400000F0B7FA002818D10120A16800038142F2
:101C500002D12069002812D02168287808856D1CDF
:101C6000788A0028E3D1069800900022402120467F
:101C7000019B00F09EFA002808D00320C2E72888C4
:101C80002168C005C00D0885AD1CE9E720207072F1
:101C900000203072B6E70220B4E77047FEE700008C
:101CA00010B5094807490160002181600161416167
:101CB0000122C161C2600162FFF754FA002800D01E
:101CC000FEE710BD00540040C000002010B5002207
:101CD00011461B20FFF712FB1B20FFF705FB10BD71
:101CE00010B510480E490160FF2105314160002107
:101CF0000322816012020161C2604161C16101225F
:101D0000016252024162826181620722C262016302
:101D100008214163FFF788FD002800D0FEE710BDD1
:101D2000003001405C00002010B50C480A490160F9
:101D3000E1214902416000218160C160016181614E
:101D4000C1610C22016242614162FFF7A1FE0028DD
:101D500000D0FEE710BD0000003801400C0100205B
:101D6000704700008307FF22DB0E9A408907090EA7
:101D7000994000280BDA0007000F0838830808484C
:101D80009B001818C36993430B43C36170478308D2
:101D900004489B001B18186890430843186070475C
:101DA00000ED00E000E400E07047704710B5FFF779
:101DB00055FAFFF7DDFD10BD30B591B0012001905F
:101DC0000090000409908000022500240A900895E4
:101DD0000B946846FFF77EFB002800D0FEE7072043
:101DE0000C900E9400210D950F940CA8FFF78AFA21
:101DF000002800D0FEE7FFF71BFB7D21C900FEF79E
:101E000071F9FFF79DFD0420FFF78CFD00221146BC
:101E1000501EFFF773FA11B030BD0000134801687F
:101E20000122114301604168114A1140416001687B
:101E3000104A11400160016801229204914301603F
:101E400041683F22120491434160C16A09090901B6
:101E5000C162016BFF22143291430163416B490857
:101E6000490041630021816070470000001002407A
:101E70000CB8FF08FFFFF6FE10B5818CC90707D02C
:101E800001684A6801235B049A43836A1A434A60E3
:101E9000818C890707D501684A6801231B049A438E
:101EA000C36A1A434A60818C490707D501684A68AA
:101EB00001239B049A43036B1A434A60818C0907F0
:101EC00007D501684A680123DB039A43436B1A4331
:101ED0004A60818CC90607D50268916801231B03FB
:101EE0009943836B19439160818C890607D50168FA
:101EF0008A6801235B039A43C36B1A438A60818C0F
:101F0000490612D503685A6801210905046C8A4301
:101F100022435A60026C8A4207D102685168032347
:101F20005B059943436C19435160818C090607D5C1
:101F300001684A680123DB04806C9A4302434A60CB
:101F400010BD0021C166202260304272827201728F
:101F50000846704710B5406A0022014640314A8366
:101F60004A82FFF709FD10BD01680A68FF2321338B
:101F70009A430A6001688A68520852008A602021E8
:101F800060308172704710B501680A6840239A4337
:101F90000A60202269210A54FFF77FFE002010BD4D
:101FA00070B50246403203466033948B9D7A0168D7
:101FB000222D05D08869082210438861022070BD57
:101FC000898C012685683603B54202D10569002D4A
:101FD0000BD02140446D651C45652170518B491E15
:101FE0000904090C518307D015E0456D2140298073
:101FF000416D891C4165F1E701680A68FF242134BD
:10200000A2430A6001688A68520852008A6020214F
:102010009972FFF7DDFD002070BD0000F8B50446A1
:102020002369A268E5691A43636910202B430021E4
:1020300025681A432B680E463E4F3B4013432B60E6
:1020400023685A6803252D03AA43E5682A435A608A
:10205000236AA26925681A43AB680B273F02BB437A
:102060001343AB60344A2568954210D1334A126B52
:102070009207920F0ED0012A05D0022A05D0032A1A
:1020800009D1022007E0042005E0082003E02C4AE3
:10209000954200D100200122E369D203934224D16A
:1020A00000280CD002280DD0042813D0082817D0FF
:1020B00001260A0912010807400F10432FE0FFF71D
:1020C000BDF909E061681F4A48088018FEF70AF860
:1020D00081B2EEE7FFF7C2F9616840004A08F4E711
:1020E0006168012248081204EFE7002808D002289E
:1020F00009D004280BD0082814D001263046F8BD9A
:10210000FFF79CF905E061680F4A48080CE0FFF70B
:10211000A5F961684A088018FDF7E4FF80B22168DC
:10212000C860EBE7616848088018FDF7DBFF80B204
:10213000E860E3E7F369FFFF003801400010024068
:10214000004400400024F40000127A006921095C78
:10215000212901D00220704702464032518A0029CD
:1021600012D0012381681B03994202D10169002921
:1021700015D0C16C4B1CC364006809780185508A76
:10218000401E50820020704701680A6880239A43ED
:102190000A6000680168402211430160F2E7C16CE7
:1021A00003680988C905C90D1985C16C891CC164FA
:1021B000E5E7FFB581B017460E4604460A9D1DE0CF
:1021C000681C1BD0002D05D0FEF7C6FF0499401AED
:1021D000A84213D920680168FF22A132914301600F
:1021E000206881684908490081602020603460725D
:1021F000A07200202072032005B0F0BD2068C169E4
:102200003046884304D00020B842D9D00020F3E7FC
:102210000120F9E710B50548FFF7B0FBFEF7A8FE6F
:10222000014601220148FFF78FFC10BD0C01002080
:1022300070B514460D460246024B2146284600F072
:102240005DF970BDDD2F00082021020C01D01021A6
:102250001046020A01D010460839020901D0104682
:10226000091F820801D01046891E420801D0881E2D
:102270007047081A704700004900CA020243100064
:1022800000D004204A0D01D001221043044A490D18
:10229000914201D102210843012800D10520704755
:1022A000FF070000F8B504464F1EC8000838211883
:1022B00015461E46086849683A4606239A4310D0D8
:1022C0002A463346FEF77EF83A46D200083AA3186B
:1022D0001A687F1E5B68FDF7C3FF06223B469343E7
:1022E000EED1022F23D0042F11D0062F2FD12A4652
:1022F0003346FEF767F8E36AA26AFDF7B1FF2A46A4
:102300003346FEF75FF8636A226AFDF7A9FF2A46A3
:102310003346FEF757F8E369A269FDF7A1FF2A46A5
:102320003346FEF74FF863692269FDF799FF2A46A5
:102330003346FEF747F8E368A268FDF791FF2A46A7
:102340003346FEF73FF863682268FDF789FFF8BD62
:1023500010B50122FEF767FA10BD10B5FDF780FF3A
:1023600010BD0000034A10B500201107FEF75BFA0C
:1023700010BD000001FDFFFF02E008C8121F08C1E8
:10238000002AFAD170477047002001E001C1121FF6
:10239000002AFBD170470000014908607047000027
:1023A00058000020F0B51FB484B007980699020DBC
:1023B000014314D04A484B491018484305140F985C
:1023C00001280E981CD0281A401C0024464E47496C
:1023D000009401910290002814DA474227E00F98F8
:1023E000012443A3012808D0002104980F9A846097
:1023F0000360C260416009B0F0BD0E98C143F4E7CC
:102400004042E2E7074612E0F80707D0224633468B
:1024100001990098FDF7D6FF0191009022463346BE
:1024200010461946FDF7CEFF04460E467F10002FDA
:10243000EAD10298019B0028009A0799069802DACF
:10244000FDF7C0FF01E0FEF725F804460E46002226
:10245000284BFEF7C5F803D80020C043014607E02B
:102460000022254B20463146FDF7FAFEFEF742FAE0
:10247000102409E0002C0ADB0A220023FEF7E0F812
:10248000059B30321A55641E02460A43F2D11122CE
:10249000641C059B121B1C190F9B012B03D00123ED
:1024A00008430ED10AE0084304D011200E9000200A
:1024B0000F9084E70E98151A6D1E0BE00E9882425D
:1024C00002DD00236D1C03E0824201DA00236D1E51
:1024D000002BEED004980F998260C16030C08AE76B
:1024E00001FCFFFF104D0000000024400000F03F01
:1024F000300000000000F0430000E03FFFB597B05F
:102500000646002518E2252877D100242746FD49F4
:10251000049400E00443761C32780120203A904075
:102520000842F7D130782A280ED0022230780146AE
:102530003039092916D804990A23594330394018EB
:102540001443761C0490F1E7189802C8049118907F
:10255000002904DA01204003044348420490022089
:102560000443761C30782E2814D10420044370785C
:10257000761C2A2809D11898761C80C8189009E082
:102580000A214F43303FC719761C30780146303955
:102590000929F5D930786C2810D006DC4C281AD0DF
:1025A00068280ED06A2817D104E0742813D07A283E
:1025B00012D110E00120400504430CE0012109057F
:1025C00001E0032109050C437178814203D1012008
:1025D00000052418761C761C3078119066280BD0E4
:1025E00013DC58287DD009DC00287BD04528F6D0A4
:1025F0004628F4D047281AD1A5E118E0632835D041
:10260000642870D0652812D19DE170286CD008DC58
:102610006728F1D069287BD06E280DD06F2806D1AD
:10262000BAE073282ED0752871D0782859D01A9A1C
:10263000199990476D1C7EE16002400F022809D075
:1026400003280DD00428189801680DD00D60001DD6
:10265000189070E11898EA1701680D604A60F6E773
:10266000189801680D80F2E70D70F0E718986A4637
:1026700001781172001D18900020507202A800907D
:10268000012005E0189802C8189000200091C0436E
:1026900061070DD5002101E00199491C0191B94262
:1026A00012DA8142F8DB009A515C0029F4D10BE088
:1026B000002101E00199491C01918142FADB019A54
:1026C0000099895C0029F5D1019904981A9B471A51
:1026D00021463846199A00F097FA01994019451891
:1026E0000BE04FE02CE113E04EE0009800990078F9
:1026F000491C00911A9A199990470198401E01901F
:10270000401CF2D1214638461A9B199A10E137E055
:102710000A200021009001916002410F022907D098
:10272000189A01CA1892C2179446032908D00AE0E1
:102730001898C01DC108C90005C91891944607E042
:1027400000B2C2179446042902D140B2C1178C4688
:1027500000226146944506DA0A4600214042914132
:102760008C462D2102E0210504D52B216A461173E8
:10277000012103E0E10701D02021F7E7029155E0B4
:102780000A200AE0102008E0102000900021042018
:1027900004430191082703E00820002101910090E3
:1027A0006002410F022907D0189A01CA189200222C
:1027B0009446032908D008E01898C01DC108C90034
:1027C00005C91891944603E080B2042900D1C0B233
:1027D00000210291210729D51199702906D0009A6C
:1027E0001021019B4A401A4305D00EE040216A4661
:1027F0001173012108E06146014306D030216A4689
:1028000011731199517302210291009A0821019BC1
:102810004A401A430AD16146014301D1610705D5F7
:1028200030216A46117301217F1E029111995829A6
:1028300004D035A10E910DA90D910DE037A1F9E756
:102840006146019B009AFDF7FBFE0E9B8C469B5C4C
:102850000D9A521E0D92137061460143F0D10D98EE
:1028600005A9081A20300190600703D50120000453
:10287000844300E001270198874201DD381A00E017
:102880000020019900904118029809180498401AF4
:102890000490E00306D421461A9B199A049800F08C
:1028A000B3F94519002706E003A81A9AC05D1999E3
:1028B00090476D1C7F1C02988742F5DBE0030CD526
:1028C00021461A9B199A049800F09EF9451904E0D4
:1028D0001A9A3020199990476D1C0099481E009053
:1028E0000029F5DC08E00D980D990078491C0D9140
:1028F0001A9A199990476D1C0199481E0190002958
:10290000F1DC63E1092801003031323334353637E8
:10291000383961626364656600000000303132332B
:1029200034353637383941424344454600000000CB
:1029300000F05AF94519761C3078002800D0E2E5FD
:1029400028461BB0F0BD600700D406271898C01DAC
:10295000C108C90048680A680831C30FDB0718912D
:10296000190001D09CA108E0210501D59BA104E03C
:10297000E10701D09AA100E09AA1430011985B08F9
:10298000109165280CD006DC452809D046281DD0BA
:10299000472841D141E0662818D067283CD13CE067
:1029A0000021112F01DB112000E0781C0191009023
:1029B00008A911A8FFF7F6FC139905910021119AB7
:1029C00015927F1C12980197009150E00120C007DA
:1029D00003900120019008A9009711A8FFF7E2FCDD
:1029E000139A149905920022119B00921298159344
:1029F000059A0192002901D0104602E0791C401886
:102A00000190381A01D5019804E04042401E009020
:102A1000781C0190C01B029043E0012F00DA0127CF
:102A20000021112F01DD112000E0384601910090B6
:102A300008A911A8FFF7B6FC13990591119A002176
:102A4000129815920091019721070CD40599B9426B
:102A500001DB019900E00191012904DD159A491E6D
:102A6000515C302906D0B84201DA011D05DA012196
:102A7000029115E00199491EEDE7002805DC009957
:102A8000411800910199091A03E0019A411C9142F1
:102A900000DD01910099401A401C02900120C007FE
:102AA0000390200706D402990198814202DB00209E
:102AB000C043029000206946C87707AF0121039800
:102AC0000337C907884224D0022011902B2012908E
:102AD000039800280CDA404203902D20129007E062
:102AE0000A210398FDF7FEFA30317F1E03903970FA
:102AF0001199481E11900029F2DC03980028EFD1AB
:102B0000791E129808703078202108404530BF1E89
:102B1000387006A8C01BC01D0390109800780028CC
:102B200000D00120019941180298C0170918039894
:102B300009180498401A401E0490E00306D4214668
:102B40001A9B199A049800F05FF8451910980078BC
:102B5000002803D01A9A199990476D1CE00324D5D8
:102B600021461A9B199A049800F04EF845191CE06A
:102B70000098002807DB00990598884203DD159826
:102B8000405C199901E0199930201A9A90470098F1
:102B90006D1C401C00900298401E0290002804D139
:102BA0001A9A2E20199990476D1C0199481E019080
:102BB0000029DDDC05E038781A9A7F1C19999047C6
:102BC0006D1C0399481E03900029F4DC21461A9BD2
:102BD000199A0498ACE600002D0000002B000000BC
:102BE0002000000000000000F8B5044600251E4645
:102BF0001746880404D405E039462020B0476D1CF0
:102C0000641EF9D52846F8BDFFB50446002581B0FD
:102C10001E46C80301D5302700E02027880404D5CC
:102C200005E038460399B0476D1C641EF9D5284667
:102C300005B0F0BD0FB410B503AA0299FFF7F8FA7A
:102C400010BC08BC04B01847F0B589B004460D4666
:102C50004800069172494008884215DB7149884254
:102C600003DC884207D1002C05D020462946FFF717
:102C70006FFB09B0F0BD6C48002D02DD6B4909B057
:102C8000F0BD6B4909B0F0BD6A49884211DA6A4962
:102C900088420BDA20462946FFF7EEFA042801D1D4
:102CA000FFF760FB2046294609B0F0BD0026F64339
:102CB0005DE06D0061496D08884232DA6049884202
:102CC00019DA0026012332469B0720462946FDF7E4
:102CD000C7FA07460191012220462946FDF7A3FDC8
:102CE0000022584BFDF760FB3A46019BFDF7D2FBF3
:102CF00004460D463BE001260022524B2046294661
:102D0000FDF7AEFA0746009100224E4B20462946B9
:102D1000FDF74AFB3A46009BFDF7BCFB04460D4617
:102D200025E04949884219DA02260022474B20460D
:102D30002946FDF747FB0022424BFDF791FA074673
:102D400002910022414B20462946FDF72DFB3A46D1
:102D5000029BFDF79FFB04460D4608E00326224632
:102D60002B4600203A49FDF795FB04460D462246C6
:102D70002B4610461946FDF725FB07460B46024633
:102D80000191FDF71FFB0246029032480B4603916A
:102D900006217844FFF786FA3A46019BFDF712FBBD
:102DA00000902D48019105217844039B029AFFF77A
:102DB00079FA039B029AFDF705FB02460B4601993F
:102DC0000098002E0BDAFDF74BFA22462B46FDF752
:102DD000F9FA22462B46FDF7EDFA09B0F0BDFDF7F2
:102DE0003FFA22462B46FDF7EDFA1C4AF6007A44DC
:102DF00093191A685B68FDF7D7FA22462B46FDF750
:102E0000D3FA174A7A4493191A685B68FDF7D2FA25
:102E1000069A002AE1DA0122D207514009B0F0BD3A
:102E2000000010440000F07F182D4454FB21F93FAE
:102E3000FB21F9BF0000DC3F0000203E0000F33F13
:102E40000000E63F0000F03F008003400000F83F34
:102E50000000F0BF6203000024030000BE02000077
:102E600088020000F0B51FB4039B54425D00164673
:102E700026439C46F40F6D084B004E4E5B082C43D6
:102E80008E46B44205D847420743FC0F1C43B44268
:102E900004D96346FFF761FA05B0F0BD464E6644BB
:102EA000164309D0CC0F6646B61702273E4026438C
:102EB00004461C4304D00BE0FFF7C6FE05B0F0BD8E
:102EC000002EFBD0012EF9D0022E32D0032E34D0AA
:102ED00014462C430BD0374CA54216D1A3420AD13D
:102EE000012189078D438B43194603950DE07046F8
:102EF00000280FDB25E0314F7F44002E0ED0012E3D
:102F000010D0022E15D0032E17D0A3421DD170462B
:102F1000002816DA2A482B4905B0F0BD79683868D0
:102F200005B0F0BD01227968D2073868514005B07C
:102F3000F0BD2348244905B0F0BD2148234905B020
:102F4000F0BD1F48224905B0F0BD5B1B1B153C2B93
:102F500002DD1B481E490FE06446002C05DA3C24C4
:102F6000E34202DA0020014606E0039BFDF792FAF5
:102F700049004908FFF768FE002EE4D0012E0BD06F
:102F8000144A154B022E0CD0FDF70EFA0C4A0E4BCC
:102F9000FDF70AFA05B0F0BD0122D207514005B095
:102FA000F0BDFDF701FA064A074BFDF703FA05B03D
:102FB000F0BD00000000F07F000010C02C020000F7
:102FC000182D4454FB21F9BFFB210940FB2109C006
:102FD000FB21F93F075C143326A6A13C10B500F095
:102FE00019F810BDFEF742F9FEF7E6FEFEF778FE8F
:102FF000FEF756FEFEF798FEE1204002FDF7BCFF0B
:10300000FEF764FEFDF796FEFDF7A6FCFDF7C0FE99
:10301000FAE7000001B56423012269460248FEF781
:10302000D8FD009808BD00000C010020F8B5064648
:103030000C46FDF70EFC05000F4600D001200143B1
:1030400049000B484908411AC90F0DD0002E01D084
:10305000012100E000210C4361004908401AC00F23
:1030600002D10120FFF798F928463946F8BD000043
:103070000000F07F000000000000000001020304D7
:103080000607080900000000010203040000000018
:103090004FBB610567ACDD3F182D4454FB21E93F70
:1030A0009BF681D20B73EF3F182D4454FB21F93F5F
:1030B000E2652F227F2B7A3C075C143326A6813CE5
:1030C000BDCBF07A8807703C075C143326A6913C90
:1030D000C4EB98999999C9BF711623FEC671BCBFFC
:1030E0006D9A74AFF2B0B3BF9AFDDE522DDEADBF64
:1030F0002F6C6A2C44B4A2BF0D5555555555D53F7C
:10310000FF8300922449C23F6E204CC5CD45B73F96
:10311000513DD0A0660DB13FEB0D76244B7BA93F0E
:1031200011DA22E33AAD903F0000000000000000F9
:1031300050310008000000205C00000078230008E7
:10314000AC3100085C000020640500008823000802
:1031500000127A00000000000000000000000000E3
:1031600001010000000000000000003F000000001E
:10317000000000000000000000000000000000004F
:10318000000000000000000000000000000000003F
:10319000000000000000000000000000000000002F
:0C31A00000000000000000000000000023
:04000005080000B53A
:00000001FF
